S0120000746573745F74696D65722E73726563D2
S11300000C942A000C943C000C943C000C943C008E
S11300100C943C000C943C000C943C000C943C006C
S11300200C943C000C943C000C943C000C948E0109
S11300300C943C000C943C000C943C000C943C004C
S11300400C943C000C943C000C943C000C943C003C
S11300500C943C0011241FBECFE5D8E0DEBFCDBF19
S113006020E0A0E6B0E001C01D92A236B207E1F79D
S11300700E9431010C94BB010C9400008130C9F042
S113008028F0823039F18330B1F146C0673008F08E
S113009045C0423008F044C08AB350E09A0102C01F
S11300A0220F331F6A95E2F7B901682B6ABB81E01E
S11300B008956730B8F54230B8F587B350E09A0137
S11300C002C0220F331F6A95E2F7B901682B67BBA0
S11300D081E00895673050F5423050F58AB350E01E
S11300E09A0102C0220F331F6A95E2F7B901682B07
S11300F06ABB81E008956730E8F44230E8F48AB3DB
S113010050E09A0102C0220F331F6A95E2F7B90149
S1130110682B6ABB81E008958FEF08958EEF0895F0
S11301208EEF08958EEF08958EEF08958EEF089563
S11301308EEF08958EEF08958EEF0895813041F18A
S113014038F0823009F444C0833009F461C07FC0C0
S1130150673008F07EC040FD0EC02BB381E090E014
S1130160AC0102C0440F551F6A95E2F7BA016095CD
S113017062236BBB08952BB381E090E0AC0102C015
S1130180440F551F6A95E2F7BA01622B6BBB0895C1
S1130190673008F060C040FD0EC028B381E090E0F5
S11301A0AC0102C0440F551F6A95E2F7BA0160958D
S11301B0622368BB089528B381E090E0AC0102C0DB
S11301C0440F551F6A95E2F7BA01622B68BB089584
S11301D0673008F042C040FD0EC025B381E090E0D6
S11301E0AC0102C0440F551F6A95E2F7BA0160954D
S11301F0622365BB089525B381E090E0AC0102C0A1
S1130200440F551F6A95E2F7BA01622B65BB089546
S1130210673028F540FD0EC022B381E090E0AC01C8
S113022002C0440F551F6A95E2F7BA016095622334
S113023062BB089522B381E090E0AC0102C0440F98
S1130240551F6A95E2F7BA01622B62BB08958FEFDE
S113025008958EEF08958EEF08958EEF08958EEF32
S1130260089541E060E081E00E943E0040E060E0EB
S113027081E00E949E000E94670180E091E00E945C
S1130280730180E00E946B0180E00E94770186EE9A
S113029090E00E94730180E00E94770141E060E0F9
S11302A081E00E949E0080E091E00E94730180E062
S11302B00E94770184E290E00E94730180E00E9432
S11302C0770140E060E081E00E949E00DDCF83B7CB
S11302D083BF81E0089583B7887F83BF83B7856038
S11302E083BF81E00895819582BF81E008958823CA
S11302F019F0813049F010C008B600FEFDCF88B770
S1130300816088BF81E0089508B601FEFDCF88B7FB
S1130310826088BF81E008958FEF08951F920F9245
S11303200FB60F9211242F933F934F935F936F93C4
S11303307F938F939F93AF93BF93EF93FF9380919A
S1130340600090916100892B29F0E0916000F091A8
S113035061000995FF91EF91BF91AF919F918F91AA
S11303607F916F915F914F913F912F910F900FBEAD
S10D03700F901F901895F894FFCF2A
S9030000FC
