:100000000C942A000C9434000C9434000C943400AA
:100010000C9434000C9434000C9434000C94340090
:100020000C9434000C9434000C9434000C94340080
:100030000C9434000C9434000C9434000C94340070
:100040000C9434000C9434000C9434000C94340060
:100050000C94340011241FBECFE5D8E0DEBFCDBF25
:100060000E94B7000C94FE000C940000813031F027
:1000700090F0823081F0833071F01BC06730D8F48B
:100080004230C8F487B3062E01C0440F0A94EAF741
:10009000842B87BB0CC0673070F4423060F48AB3A5
:1000A000062E01C0440F0A94EAF7842B8ABB81E034
:1000B00008958FEF08958EEF08958130D1F028F0E4
:1000C000823059F18330E1F14EC0673008F04DC005
:1000D0002BB381E090E0062E01C0880F0A94EAF766
:1000E00040FD04C0809582238BBB12C0282B2BBB04
:1000F0000FC06730D0F528B381E090E0062E01C034
:10010000880F0A94EAF740FD05C08095822388BBDA
:1001100081E00895282B28BBFBCF673030F525B34D
:1001200081E090E0062E01C0880F0A94EAF740FDB6
:1001300004C08095822385BBEBCF282B25BBE8CF5D
:10014000673098F422B381E090E0062E01C0880F5A
:100150000A94EAF740FD04C08095822382BBD8CF81
:10016000282B22BBD5CF8FEF08958EEF089541E065
:1001700060E081E00E94360041E060E081E00E94A2
:100180005D000E94DA0089E00E94E60081E00E94A2
:10019000DE0080E00E94EB0041E060E081E00E9430
:1001A0005D0080E00E94EB0040E060E081E00E94A2
:1001B0005D00EFCF83B783BF81E0089583B7887F69
:1001C00083BF83B7856083BF81E0089599E0981B62
:1001D00093BF81E00895882319F0813029F00CC085
:1001E00008B600FEFDCF03C008B601FEFDCF88B7FC
:1001F000816088BF81E008958FEF0895F894FFCF64
:00000001FF
